:100000000C9483000C94AB000C94AB000C94AB00EC
:100010000C94AB000C94AB000C94AB000C94A602B7
:100020000C94AB000C94AB000C94AB000C94AB00A4
:100030000C94AB000C94AB000C94AB000C94AB0094
:100040000C94551B0C94AB000C9428030C940203E5
:100050000C94AB000C94AB000C94AB000C94AB0074
:100060000C945A030C94AB006A05B605C105CE0585
:1000700019066B0614088106D507DC07EF0702088E
:100080002808390853085E0873088C08D1089B08B3
:10009000A808AB08B608C108A312B112BF12CD124E
:1000A000DB12E912F71200130200000000240027FF
:1000B000002A0000000000250028002B000000009E
:1000C000002300260029000404040404040404029C
:1000D00002020202020303030303030102040810E5
:1000E00020408001020408102001020408102000B2
:1000F00000000800020100000304070000000000E7
:1001000000000000E62611241FBECFEFD8E0DEBFBE
:10011000CDBF12E0A0E0B1E0EEE1FAE502C005904B
:100120000D92A831B107D9F724E0A8E1B2E001C0EF
:100130001D92A635B207E1F710E0C3E8D0E004C095
:100140002197FE010E940C2AC238D107C9F70E94EC
:100150009F1B0C940D2D0C940000CF92DF92EF9218
:10016000FF920F931F93CF93DF936C017A018B0162
:10017000C0E0D0E0CE15DF0581F0D8016D918D0192
:10018000D601ED91FC910190F081E02DC601099519
:10019000892B11F02196EECF7E01C701DF91CF911F
:1001A0001F910F91FF90EF90DF90CF900895FC0189
:1001B000538D448D252F30E0842F90E0821B930BCC
:1001C000541710F0CF96089501970895FC01918D72
:1001D000828D981761F0828DDF01A80FB11D5D96A9
:1001E0008C91928D9F5F9F73928F90E008958FEF17
:1001F0009FEF0895FC01918D828D981731F0828DCB
:10020000E80FF11D858D90E008958FEF9FEF089521
:10021000FC01918D228D892F90E0805C9F4F821B85
:1002200091098F73992708958CE093E00E9408014B
:1002300021E0892B09F420E0822F0895FC01848DB0
:10024000DF01A80FB11DA35ABF4F2C91848D90E000
:1002500001968F739927848FA689B7892C93A089DB
:10026000B1898C91837080648C93938D848D981365
:1002700006C00288F389E02D80818F7D80830895F8
:10028000EF92FF920F931F93CF93DF93EC0181E0E6
:10029000888F9B8D8C8D981305C0E889F9898081A2
:1002A00085FD26C0F62E0B8D10E00F5F1F4F0F73DC
:1002B0001127E02E8C8DE8120CC00FB607FCFACF88
:1002C000E889F989808185FFF5CFCE010E941E0162
:1002D000F1CF8B8DFE01E80FF11DE35AFF4FF08245
:1002E0009FB7F8940B8FEA89FB89808180620AC0EE
:1002F0009FB7F894EE89FF896083E889F989808146
:100300008370806480839FBF81E090E0DF91CF9114
:100310001F910F91FF90EF900895CF93DF93EC0121
:10032000888D8823C9F0EA89FB89808185FD05C015
:10033000A889B9898C9186FD0FC00FB607FCF5CF4F
:10034000808185FFF2CFA889B9898C9185FFEDCF97
:10035000CE010E941E01E7CFDF91CF91089580E08A
:1003600090E0892B29F00E94140181110C94000067
:10037000089585ED8093BC008091BC0084FDFCCF86
:100380001092E502089540917A02262F30E0240F62
:10039000311D21323105DCF42091E5022430C9F40D
:1003A000FC0180E090E0861758F430917A022191A8
:1003B000DC01A65ABD4FA30FB11D2C930196F3CFBC
:1003C00080917A02680F60937A0280E0089581E05C
:1003D000089582E00895089508950895E0919E0299
:1003E00080919D02E81730F4F0E0E156FD4F8081E6
:1003F00090E008958FEF9FEF089590919E02809175
:100400009D02981750F4E92FF0E0E156FD4F20814E
:1004100030E09F5F90939E0202C02FEF3FEFC90133
:10042000089580919D0290E020919E02821B910987
:100430000895CF92DF92EF92FF920F931F93CF9385
:10044000DF937C01CB018A012091E602222389F00F
:10045000EB016B01C40ED51ECC15DD0569F0699169
:10046000D701ED91FC910190F081E02DC701099534
:10047000F3CF642F0E94C301C801DF91CF911F9178
:100480000F91FF90EF90DF90CF900895CF93DF937F
:100490001F92CDB7DEB769832091E6022223D1F007
:1004A00020910903203240F021E030E0FC01338349
:1004B000228380E090E015C08091E702E82FF0E011
:1004C000E851FD4F998190838F5F8093E70280937D
:1004D000090305C061E0CE0101960E94C30181E0DD
:1004E00090E00F90DF91CF910895089580E090E023
:1004F00008950E94082D90910201891324C0E8EA12
:10050000F0E0E4919FEF90930201E130B9F098F0B0
:10051000E230C9F4909170009D7F9093700091E05B
:100520009093B0009091B100987F94609093B10047
:100530001092B30008C010926E0005C090916F0039
:100540009D7F90936F0060E00C941C181F920F9297
:100550000FB60F9211242F933F934F935F936F9396
:100560007F938F939F93AF93BF93EF93FF9380916C
:10057000260290912702A0912802B0912902892B8E
:100580008A2B8B2B51F190912302E0912402F09160
:1005900025028081892780838091260290912702FD
:1005A000A0912802B0912902181619061A061B06F6
:1005B000C4F48091260290912702A0912802B09164
:1005C00029020197A109B10980932602909327027D
:1005D000A0932802B093290204C0809102010E94D6
:1005E0007B02FF91EF91BF91AF919F918F917F918E
:1005F0006F915F914F913F912F910F900FBE0F9090
:100600001F9018951F920F920FB60F9211242F93DF
:100610003F934F935F936F937F938F939F93AF938A
:10062000BF93EF93FF938CE093E00E941E01FF9134
:10063000EF91BF91AF919F918F917F916F915F915A
:100640004F913F912F910F900FBE0F901F901895D3
:100650001F920F920FB60F9211242F938F939F9397
:10066000EF93FF93E0911C03F0911D038081E091D3
:100670002203F091230382FD12C090818091250313
:100680008F5F8F7320912603821751F0E09125032D
:10069000F0E0E45FFC4F958F8093250301C08081DB
:1006A000FF91EF919F918F912F910F900FBE0F901F
:1006B0001F9018951F920F920FB60F9211242F932F
:1006C0003F934F935F936F937F938F939F93AF93DA
:1006D000BF93EF93FF938091B900887F803609F430
:1006E0009CC068F5883209F45BC090F4803109F44D
:1006F00054C038F4882309F4F6C0883009F44DC09A
:10070000F6C0883109F44CC0803209F45DC0EFC0F6
:10071000803409F468C048F4803309F455C0883344
:1007200009F0E5C08093E302D8C0803509F44FC0DA
:10073000883509F45DC0883409F0D9C0D6C088393D
:1007400009F4C7C0A8F4883709F467C038F48836BC
:1007500009F463C0803709F460C0C9C0883809F45F
:10076000B8C0803909F45FC0803809F0C0C05BC0F0
:10077000803B09F486C038F4803A09F466C0883AB0
:1007800009F47FC0B4C0803C09F4A7C0883C09F4D8
:10079000A4C0883B09F48AC0AAC08091C00210C0DE
:1007A0009091E2028091E102981770F5E091E202E7
:1007B00081E08E0F8093E202F0E0EF53FD4F8081E5
:1007C0008093BB0085EC86C08093E3028EC0E091ED
:1007D000E20281E08E0F8093E2028091BB00F0E0A4
:1007E000EF53FD4F80839091E2028091E1026EC051
:1007F000E091E20281E08E0F8093E2028091BB00E3
:10080000F0E0EF53FD4F80838091E40281116DC0D1
:1008100081E08093BF0284EA61C083E08093E502B7
:1008200010929C02CFCF80919C02803208F051C080
:10083000E0919C0281E08E0F80939C028091BB002E
:10084000F0E0E458FD4F8083BDCF85EC8093BC0081
:100850001092E50280919C02803230F4E0919C027B
:10086000F0E0E458FD4F108260919C0270E0E0914E
:100870001802F09119028CE792E0099510929C02FF
:1008800036C084E08093E50210927B0210927A02D7
:10089000E0911A02F0911B02099580917A02811170
:1008A00005C081E080937A0210925A02E0917B02A7
:1008B00081E08E0F80937B02F0E0E65AFD4F80814D
:1008C0008093BB0090917B0280917A02981708F484
:1008D00079CF85E88093BC000AC085EC8093BC008A
:1008E0001092E50204C01092E3020E94B901FF9148
:1008F000EF91BF91AF919F918F917F916F915F9198
:100900004F913F912F910F900FBE0F901F90189510
:10091000CF93DF93EB010E9465278883CE01DF919F
:10092000CF910895CF92DF92EF92FF920F931F9392
:10093000CF93DF93EB017B0124E0E20EF11C8B01EE
:100940006C01C61AD70AC601800F911F0E94652745
:10095000F80181938F01EE15FF05A9F7CE01DF9114
:10096000CF911F910F91FF90EF90DF90CF9008955E
:10097000FF920F931F93CF93DF93EC01F62E088124
:100980001981C8010E946527F81621F06F2DC80152
:100990000E946D27CE01DF91CF911F910F91FF90A3
:1009A00008950F931F93CF93DF9300D0CDB7DEB799
:1009B0008B01FB0160819A838983CE0101960E949D
:1009C000B804C8010F900F90DF91CF911F910F9144
:1009D0000895AF92BF92CF92DF92EF92FF920F9362
:1009E0001F93CF93DF9300D0CDB7DEB78B016B01A0
:1009F00024E0C20ED11C7B015C01A61AB70AC50116
:100A00008E0D9F1DF70161917F019A838983CE012D
:100A100001960E94B804EC14FD0489F7C8010F90F8
:100A20000F90DF91CF911F910F91FF90EF90DF908A
:100A3000CF90BF90AF9008950F931F93CF93DF9304
:100A4000CDB7DEB728970FB6F894DEBF0FBECDBF87
:100A500080913402811117C081E08093330280932A
:100A600034020E948D1860E080E00E94951883EAAD
:100A700091E00E94511960E971E080E090E00E94ED
:100A80001B1B0E948D1880913A02882309F48BC3A6
:100A900080912A02E0910401882381F0809139023B
:100AA0008E0F8F3008F08EE0809304018091040156
:100AB0008111BAC281E080930401B6C28E2F90E00A
:100AC000FC013197EC30F10508F0AEC2EC5CFF4F51
:100AD0000C940C2AA09139022091350230913602F3
:100AE00040913702509138020A2E000CBB0B0E9435
:100AF0001D2A00912F021091300220913102309175
:100B00003202DC01CB01800F911FA21FB31F813085
:100B10002AEE920726E5A2072AEFB20720F080E22C
:100B200091EAA7E0B0E080932F0290933002A09367
:100B30003102B093320280912F0290913002A09145
:100B40003102B091320281309A45A246B24008F497
:100B50006BC280E09AE5A2E6B2E080932F02909308
:100B60003002A0933102B09332025EC29091010133
:100B700080913902890F89320CF088E2809301015B
:100B800053C280913902813011F482E004C08F3F5A
:100B900009F04AC281E08093000146C2A091390267
:100BA000209135023091360240913702509138023F
:100BB0000A2E000CBB0B0E941D2A00911F021091EF
:100BC00020022091210230912202DC01CB01800F12
:100BD000911FA21FB31F813826E9920728E9A207B7
:100BE000B10524F080E896E9A8E9B0E080931F02FF
:100BF00090932002A0932102B093220280911F02C1
:100C000090912002A0912102B09122028038994651
:100C1000A746BF4F0CF008C280E899E6A7E6BFEFF1
:100C200080931F0290932002A0932102B09322028E
:100C3000FBC120913502309136024091370250912C
:100C40003802A4E6B0E00E94122A9B01AC01A091F8
:100C500039020A2E000CBB0B0E941D2A00912B02A8
:100C600010912C0220912D0230912E02DC01CB013B
:100C7000800F911FA21FB31F813028E292072BE63D
:100C8000A2072EEEB20720F080E098E2ABE6BEEEBF
:100C900080932B0290932C02A0932D02B0932E02EE
:100CA00080912B0290912C02A0912D02B0912E02E6
:100CB0008039904DA340B10508F0B6C180E990EDB0
:100CC000A3E0B0E080932B0290932C02A0932D021E
:100CD000B0932E02A9C14091390220913502309182
:100CE00036024203C001439F900D112420910A0354
:100CF00030910B03820F931F90930B0380930A0391
:100D000093C180913902813009F08EC11D821E820B
:100D10001F82188619821A821B821C82BE016B5F99
:100D20007F4F80E090E00E94920440912F0250910A
:100D3000300260913102709132028D819E81AF81CB
:100D4000B885481759076A077B0731F06FE272E0F0
:100D500080E090E00E94E90480910101082E000CDF
:100D6000990BAA0BBB0B8D839E83AF83B88761E081
:100D700071E084E090E00E9488044D815E816F8183
:100D8000788580910101082E000C990BAA0BBB0BF2
:100D900084179507A607B70741F04093010161E06A
:100DA00071E084E090E00E94D104BE016F5F7F4F4C
:100DB00080E190E00E94920440911F025091200235
:100DC000609121027091220289819A81AB81BC815C
:100DD000481759076A077B0731F06FE172E080E13D
:100DE00090E00E94E904BE016B5F7F4F84E190E0D8
:100DF0000E94920440912B0250912C0260912D028E
:100E000070912E028D819E81AF81B8854817590758
:100E10006A077B0731F06BE272E084E190E00E94A8
:100E2000E90480910A0390910B03A0E0B0E08D8368
:100E30009E83AF83B8870E9408194D815E816F81C0
:100E4000788580910A0390910B03A0E0B0E08417AD
:100E50009507A607B70731F050930B0340930A0399
:100E60000E941A1980911E0290E0A0E0B0E08D83EC
:100E70009E83AF83B8876EE172E08AE190E00E94C2
:100E800088044D815E816F81788580911E0290E09B
:100E9000A0E0B0E084179507A607B70741F040939C
:100EA0001E026EE172E08AE190E00E94D10480911E
:100EB0001D0290E0A0E0B0E08D839E83AF83B887F1
:100EC0006DE172E08BE190E00E9488044D815E81CB
:100ED0006F81788580911D0290E0A0E0B0E08417DA
:100EE0009507A607B70741F040931D026DE172E038
:100EF0008BE190E00E94D10480911C0290E0A0E080
:100F0000B0E08D839E83AF83B8876CE172E08CE1A3
:100F100090E00E9488044D815E816F817885809188
:100F20001C0290E0A0E0B0E084179507A607B70781
:100F300041F040931C026CE172E08CE190E00E9471
:100F4000D1048091000190E0A0E0B0E08D839E8309
:100F5000AF83B88760E071E082E290E00E9488048D
:100F60004D815E816F8178858091000190E0A0E0E5
:100F7000B0E084179507A607B70741F0409300013A
:100F800060E071E082E290E00E94D10461E080E0E4
:100F90000E94951889EA91E00E94511968EE73E069
:100FA00080E090E00E941B1B3FC08091390281309D
:100FB000D9F50C94000038C080913902880F9091C7
:100FC0001E02890F823008F482E080931E02809115
:100FD0001E02893048F188E080931E0225C080916E
:100FE0003902880F90911D02890F823008F482E047
:100FF00080931D0280911D028930B0F088E08093BB
:101000001D0212C080913902880F90911C02890F35
:10101000823008F482E080931C0280911C028930A7
:1010200018F088E080931C020E948D1860E080E038
:101030000E949518E09104018E2F90E0FC013197F9
:10104000EC30F10508F0ADC0E05CFF4F0C940C2AC9
:101050008AEB91E00E94511961E080E00E949518AE
:1010600060912F0270913002809131029091320292
:1010700095C08DEB91E00E94511961E080E00E94E3
:10108000951860910101062E000C770B880B990BC7
:1010900097FF03C00E94941903C04AE00E945319AD
:1010A00082EC91E052C087EC91E00E94511961E01E
:1010B00080E00E949518609100016DC08AEC91E07B
:1010C0000E94511961E080E00E94951860911F0212
:1010D00070912002809121029091220297FF5EC0C0
:1010E0000E9494195EC080ED91E00E94511961E068
:1010F00080E00E94951860912B0270912C028091E3
:101100002D0290912E0224E630E040E050E00E9453
:10111000CB29CA01B90142C084ED91E00E94511966
:1011200061E080E00E94951880910A0390910B0382
:101130000E94B01936C08AED91E00E94511961E019
:1011400080E00E9495188EEE91E00E94511929C00E
:1011500087EE91E0FACF86EF91E00E94511961E0AD
:1011600080E00E94951860911E0215C081E092E017
:101170000E94511961E080E00E94951860911D0263
:101180000AC08CE092E00E94511961E080E00E9468
:10119000951860911C0270E080E090E04AE00E94A7
:1011A000531910923A0228960FB6F894DEBF0FBE7C
:1011B000CDBFDF91CF911F910F9108958F929F9294
:1011C000AF92BF92CF92DF92EF92FF920F931F9355
:1011D000CF93DF93EC01862E942EE12CF12C80E846
:1011E000A82EB12C93E2C92ED12CB5010E2C02C031
:1011F000759567950A94E2F768218A850E941C1804
:1012000061E08B850E941C1803E210E0C601019783
:10121000F1F760E08B850E941C188FEFE81AF80A3E
:1012200088E0E816F10409F7692D8A850E941C18E8
:10123000C8010197F1F761E08C850E941C18C80174
:101240000197F1F760E08C85DF91CF911F910F91AD
:10125000FF90EF90DF90CF90BF90AF909F908F90D6
:101260000C941C1841E00E94DE0881E090E0089593
:10127000EF92FF920F931F93CF93DF9360912B0216
:1012800070912C0280912D0290912E0220EA36E876
:1012900041E050E00E94CB29E90160E080E00E943B
:1012A000951860E285EB93E00E943209C03187E235
:1012B000D80720F060E080E00E949518CE0168EE2B
:1012C00073E00E94B729EC01CB010E94B0196EE2D5
:1012D00085EB93E00E94320904E610E0CE01B801EC
:1012E0000E94B7297C01CB010E94B019CAE0D0E06E
:1012F000C701BE010E94B7297C01CB010E94B01931
:10130000C7010E94B0196EE285EB93E00E9432099A
:1013100060912B0270912C0280912D0290912E02EF
:1013200024E630E040E050E00E94CB29CA01B90138
:1013300028EE33E040E050E00E94CB29CB01B80119
:101340000E94B7298C01CB010E94B019C801BE01CF
:101350000E94B729EC01CB010E94B019CE01DF91A8
:10136000CF911F910F91FF90EF900C94B0192F9295
:101370003F924F925F926F927F928F929F92AF9225
:10138000BF92CF92DF92EF92FF920F931F93CF9372
:10139000DF93CDB7DEB7A4970FB6F894DEBF0FBECC
:1013A000CDBF380149014C8F5E872B01FF8AEE8A41
:1013B000892B29F4E0912B04F0912C0404C0E091D6
:1013C0002D04F0912E04FF27EE0FFF1FEE0FFF1FDD
:1013D000E15DFB4F608171818281938124E630E081
:1013E00040E050E00E947E2A322E232E4D835E8301
:1013F0006F83788789879A8786017501110FEE08B8
:10140000FE2C87019501A6016E2D7E2D8E2D9E2D21
:101410000FE10E94802BA12CEAECBE2EFAE9CF2E20
:10142000ABE3DA2EE12CF12C00E010E00E94AB2AB5
:10143000A32CB22CCD80DE80EF80F88409851A853C
:101440000E94252A0FE10E949B2B59016A01D601B7
:10145000C501BB0F880B982FDC0189839A83AB836E
:10146000BC839501A6016981762F862F962FA32C28
:10147000B22CCD80DE80EF80F88409851A850E9429
:10148000B72B322E232E49835D836E837F8388871B
:1014900099879301A4016C8D7E85C2012F3FA7E53A
:1014A0003A07A7E44A07A8EF5A07ADE06A077105B3
:1014B00081059105A9F0A0F0211534404B46544F09
:1014C0006441710581059105B9F0B0F0612C04E02B
:1014D000702E8BE6882E94EF992EF4E1FC8F09C0D4
:1014E000612C28E5722E37E4832E48EF942EEDE030
:1014F000EC8F1E86412C512CA32CB22CC980DD8090
:10150000EE80FF80088519859301A4016C8D7E858E
:10151000C2010E94DC2A288F398F4A8F5B8F2A876D
:101520003B874C875D878A859B85AC85BD850F97FA
:10153000A105B10518F41FE0A12E0BC08A859B857B
:10154000AC85BD858B359105A105B105C0F0BAE527
:10155000AB2EB12CC12CD12CE12CF12C00E010E0F1
:10156000232D322D49815D816E817F81888599850A
:101570000E94252A39014A016C8F7E872C01A32CF9
:10158000B22CC980DD80EE80FF800885198593012B
:10159000A4016C8D7E85C2010E94DA2AE0E4AE2EA1
:1015A000F2E4BF2EAFE0CA2ED12CE12CF12C00E0EA
:1015B00010E00E94252AA32CB22CC980DD80EE8089
:1015C000FF80088519850E94DC2AC901DA0100978D
:1015D000A105B10529F4412C512C3201439407C0D7
:1015E00060E4462E62E4562E6FE0662E712C5C019C
:1015F0006D0187E0AA0CBB1CCC1CDD1C8A95D1F7C1
:10160000AC8EBD8ECE8EDF8EA32CB22CC980DD8039
:10161000EE80FF800885198560E070E080E090E052
:101620000E94252A63015201E12CF12C87014E868C
:10163000BF86C88AD98AEA8AFB8A0C8B1D8BE12C6B
:10164000F12C00E010E00E94DC2A2E8738A349A389
:101650005AA34B018CA39BA3CA84DB84EC84FD8436
:1016600097E0CC0CDD1CEE1CFF1C9A95D1F702E034
:10167000D01AE108F1086C8D7D8D8E8D9F8DA301B0
:1016800092010E94CB2989019A010C0D1D1D2E1D6E
:101690003F1DAE89BF890D931D932D933C931397E6
:1016A000FD01648375838683978318964D925D92BE
:1016B0006D927C921B97A32CB22CC980DD80EE80AA
:1016C000FF8008851985288D398D4A8D5B8D60E0F6
:1016D00070E080E090E00E94252AAE84B8A0C9A006
:1016E000DAA074010CA11BA10E94B72BA4960FB61F
:1016F000F894DEBF0FBECDBFDF91CF911F910F9148
:10170000FF90EF90DF90CF90BF90AF909F908F9021
:101710007F906F905F904F903F902F9008952F9201
:101720003F924F925F926F927F928F929F92AF9271
:10173000BF92CF92DF92EF92FF920F931F93CF93BE
:10174000DF93CDB7DEB769970FB6F894DEBF0FBE53
:10175000CDBF29873A874B875C876D877E871C01C1
:101760004A2CBB8ACC8ADD8AEE8AFF8A088F198FC1
:10177000988A8F862115E6ED3E07E1E14E07EEE7F8
:101780005E07E3E06E0771058105910509F068F5D4
:101790002F37304F4A4F5240610571058105910541
:1017A00009F008F459C02A2D3B2DA601B701C80144
:1017B000A0E00E94CC2B09F001C1A984BA84CB849B
:1017C000DC84ED84FE84810120E033E245E75EEEB7
:1017D00064E170E080E090E00E94DC2A422E532E0B
:1017E000642E752E20FD1FC024C02A2D3B894C89F4
:1017F0005D896E897F89888D998DA0E00E94CC2BB0
:1018000009F028C125E0422E512C612C712C19863B
:1018100026ED2A8731E13B874EE74C8753E05D8711
:101820001E86212C312C6FEF461A560A660A760A5C
:1018300006C075E0471651046104710439F08FEF5A
:10184000481651046104710400F524C096E0492E45
:10185000512C612C712C1EC02A2D3B894C895D892D
:101860006E897F89888D998DA0E00E94CC2B09F02C
:1018700099C090E89987E0EFEA87FAEFFB8722E0CA
:101880002C871D861E86212C312C8EEF482E512C44
:10189000612C712CA301920160E070E0CB01A9845E
:1018A000BA84CB84DC84ED84FE84810149823A834E
:1018B0004B835C836D837E838F83988760E070E0C9
:1018C00080E090E00E94252AB22FA32FF42EE52E6F
:1018D0004B018C012115E4E03E07EBE64E07E4EFF7
:1018E0005E07E4E16E07710581059105A1F098F0AE
:1018F000F2E04F1A510861087108A301920160E0FB
:1019000070E0CB0149823A834B835C836D837E8395
:101910008F83988720C02F3F37454744584F6D40ED
:1019200071058105910509F028F5F2E04F0E511C73
:10193000611C711CA301920160E070E0CB0149823F
:101940003A834B835C836D837E838F839887A984DE
:10195000BA84CB84DC84ED84FE84810160E070E095
:1019600080E090E00E94252AB22FA32FF42EE52ECE
:101970004B018C01552466247724EF85F889408239
:1019800051826282738214821582168217821086B7
:10199000118612861386B9835A2E6F2C7E2C098BE2
:1019A0001A8B62C020E8298730EF3A874AEF4B87CD
:1019B00052E05C871D861E86212C312CA984BA84B6
:1019C000CB84DC84ED84FE848101242D3B894C8909
:1019D0005D896E897F89888D998D0E94DA2A298395
:1019E000532E3A014B01898B9A8BA0E00E94CC2B9D
:1019F00041F5242D3B894C895D896E897F89888DCD
:101A0000998D0E94DC2AC901DA01AC01BD01465062
:101A1000510961097109493F51056105710520F5B9
:101A2000EF85F88980839183A283B3831482158222
:101A3000168217821086118612861386F1E0F983CA
:101A400001C01982512C612C712C812C912C198A86
:101A50001A8A0AC0198666ED6A8771E17B878EE76C
:101A60008C8793E09D87A7CF2981352DA301B401F1
:101A700089899A8969960FB6F894DEBF0FBECDBFEB
:101A8000DF91CF911F910F91FF90EF90DF90CF905A
:101A9000BF90AF909F908F907F906F905F904F908E
:101AA0003F902F900895DF92EF92FF920F931F9334
:101AB000CF93DF93FC01E080F18002811381D48118
:101AC000C581B681D7809701A8016D2F7C2F8B2F00
:101AD0009D2D285938424C415109610971098109EC
:101AE0009109273938424C4151056105710581053D
:101AF000910509F098F49701A8016D2F7C2F8B2F89
:101B00009D2D07E00E94802B2083318342835383E5
:101B1000648375838683978387E001C19701A80159
:101B20006D2F7C2F8B2F9D2D20533145484351091C
:101B300061097109810991092F32314548435105E5
:101B4000610571058105910509F098F49701A801D7
:101B50006D2F7C2F8B2F9D2D06E00E94802B2083E4
:101B6000318342835383648375838683978386E0BE
:101B7000D6C09701A8016D2F7C2F8B2F9D2D20564D
:101B8000324A4047510961097109810991092F358C
:101B9000324A40475105610571058105910509F0FB
:101BA00098F49701A8016D2F7C2F8B2F9D2D05E0B8
:101BB0000E94802B20833183428353836483758307
:101BC0008683978385E0ABC09701A8016D2F7C2F9A
:101BD0008B2F9D2D205C3444414E510961097109C0
:101BE000810991092F3B3444414E5105610571052E
:101BF0008105910509F098F49701A8016D2F7C2FBC
:101C00008B2F9D2D04E00E94802B20833183428303
:101C10005383648375838683978384E080C09701B0
:101C2000A8016D2F7C2F8B2F9D2D20583948424CB9
:101C3000514061097109810991092F373948424C96
:101C40005140610571058105910509F098F49701EE
:101C5000A8016D2F7C2F8B2F9D2D03E00E94802BE0
:101C60002083318342835383648375838683978380
:101C700083E055C09701A8016D2F7C2F8B2F9D2DE0
:101C800033514548534061097109810991092F3F3A
:101C9000324145485340610571058105910509F0C0
:101CA00098F49701A8016D2F7C2F8B2F9D2D02E0BA
:101CB0000E94802B20833183428353836483758306
:101CC0008683978382E02BC09701A8016D2F7C2F1C
:101CD0008B2F9D2D36524A40574061097109810969
:101CE00091092F3F35424A405740610571058105F2
:101CF000910509F098F49701A8016D2F7C2F8B2F87
:101D00009D2D01E00E94802B2083318342835383E9
:101D1000648375838683978381E001C080E0DF91CF
:101D2000CF911F910F91FF90EF90DF9008952F9228
:101D30003F924F925F926F927F928F929F92AF925B
:101D4000BF92CF92DF92EF92FF920F931F93CF93A8
:101D5000DF93CDB7DEB768970FB6F894DEBF0FBE3E
:101D6000CDBF290149875A873B011C01A982B98A45
:101D7000CA8ADB8AEC8AFD8A0E8B1F8B988A8F8633
:101D8000211501EC30070AE140070DE3500705E09B
:101D9000600771058105910509F0C8F42F3710EF30
:101DA00031071AEF410712E05107610571058105FE
:101DB000910509F008F43BC12F3F354D41415E4785
:101DC000634071058105910509F068F40AC1412C51
:101DD000F1EC5F2EFAE1F9870DE30A87A5E06A2EA0
:101DE000712C212C312C298139894A895B896C8994
:101DF0007D898E899F89A0E00E94CC2B09F077C055
:101E00009924939414E0E12EF12C00E010E0EB868D
:101E1000FC860D871E87EB84FC840D851E85A8013A
:101E2000970160E070E0CB015201C984DA8473014C
:101E3000810129833A834B835C836D837E838F8307
:101E4000988760E070E080E090E00E94252A298376
:101E5000398B4A8B5B8B6C8B7D8B8E8B9F8BFF249E
:101E6000F3949F1409F409C110E0812C912C5401C2
:101E7000839440E050E0BA0101C011E0CB01BA0107
:101E8000B7E0660F771F881F991FBA95D1F7CB84EB
:101E9000DC84ED84FE8407E0CC0CDD1CEE1CFF1C12
:101EA0000A95D1F7A2E0DA1AE108F108A501940138
:101EB0000E94CB29C20ED31EE41EF51EEF85F889C1
:101EC000C082D182E282F3826483758386839783A2
:101ED00080869186A286B386111103C12981398932
:101EE0004A895B896C897D898E899F890EC111E041
:101EF000188F5201C984DA847301810129813989DB
:101F00004A895B896C897D898E899F890E94DC2A38
:101F10002B873C874D875E878B859C85AD85BE85ED
:101F20000697A105B10520F406E0A02EB12C0FC044
:101F3000EB84FC840D851E8529E0E21627E0F2067D
:101F400001051105C8F0B8E0AB2E17E0B12EC12C89
:101F5000D12CE12CF12C00E010E0298139894A894B
:101F60005B896C897D898E899F890E94DC2A290181
:101F700049875A873B011C015201C984DA847301E5
:101F80008101298139894A895B896C897D898E899A
:101F90009F890E94DA2AE0E4AE2EF2E4BF2EAFE081
:101FA000CA2ED12CE12CF12C00E010E00E94252A51
:101FB0005201C984DA84730181010E94DC2AA32FB3
:101FC000F42FE52F422F5A2F6F2F7E2F41155105E9
:101FD0006105710509F068C0812C912C540183942E
:101FE0006AC0298139894A895B896C897D898E8992
:101FF0009F89A0E00E94CC2BF1F55201C984DA84BC
:102000007301810120E034E04BE654EF64E170E0BD
:1020100080E090E00E94DC2A122FB32FF42FE52FEE
:10202000A7E00E94CC2B01F516E0B0E01BC029818F
:1020300039894A895B896C897D898E899F89A0E06D
:102040000E94CC2B09F053C020E8422E30EF532ED3
:10205000BAEFB987E2E0EA87612C712C212C312C90
:1020600018E0B7E0F0E0E0E0CF011B87BC879D8778
:10207000EE87912CD0CE188E3CCFAF85B8891D92BB
:102080001D921D921C921397FD01148215821682D7
:102090001782C12CD12C7601C3941896CD92DD9273
:1020A000ED92FC921B9731C020E4822E22E4922E06
:1020B0002FE0A22EB12CF88DF13009F0DECEEF85A5
:1020C000F88910821182128213821482158216827C
:1020D000178281E090E0A0E0B0E080879187A2873E
:1020E000B387920149855A85B301C1010EC0188E8C
:1020F00080E8482E90EF592E0AEF098712E01A87E0
:10210000612C712C212C312CF4CE68960FB6F894EA
:10211000DEBF0FBECDBFDF91CF911F910F91FF901A
:10212000EF90DF90CF90BF90AF909F908F907F9077
:102130006F905F904F903F902F900895DF92EF92B5
:10214000FF920F931F93CF93DF93FC01E080F18008
:1021500002811381D481C581B681D7809701A801FE
:102160006D2F7C2F8B2F9D2D20583A4146405109D1
:1021700061097109810991092F373A41464051059A
:10218000610571058105910509F098F49701A80191
:102190006D2F7C2F8B2F9D2D07E00E94802B20839D
:1021A000318342835383648375838683978387E077
:1021B000FDC09701A8016D2F7C2F8B2F9D2D3553CE
:1021C0004C40510961097109810991092F3F34433C
:1021D0004C405105610571058105910509F098F4A0
:1021E0009701A8016D2F7C2F8B2F9D2D06E00E945B
:1021F000802B20833183428353836483758386835A
:10220000978386E0D3C09701A8016D2F7C2F8B2F79
:102210009D2D3A5648415109610971098109910979
:102220002F3F3946484151056105710581059105EA
:1022300009F098F49701A8016D2F7C2F8B2F9D2D0D
:1022400005E00E94802B2083318342835383648383
:1022500075838683978385E0A9C09701A8016D2FB8
:102260007C2F8B2F9D2D345D4043510961097109ED
:10227000810991092F3F334D404351056105710597
:102280008105910509F098F49701A8016D2F7C2F25
:102290008B2F9D2D04E00E94802B2083318342836D
:1022A0005383648375838683978384E07FC097011B
:1022B000A8016D2F7C2F8B2F9D2D385A4146510937
:1022C00061097109810991092F3F374A414651053A
:1022D000610571058105910509F098F49701A80140
:1022E0006D2F7C2F8B2F9D2D03E00E94802B208350
:1022F000318342835383648375838683978383E02A
:1023000055C09701A8016D2F7C2F8B2F9D2D305527
:10231000434C510961097109810991092F3F3F44DB
:10232000434C5105610571058105910509F098F44B
:102330009701A8016D2F7C2F8B2F9D2D02E00E940D
:10234000802B208331834283538364837583868308
:10235000978382E02BC09701A8016D2F7C2F8B2FD4
:102360009D2D305A464851406109710981099109F2
:102370002F3F3F4946485140610571058105910550
:1023800009F098F49701A8016D2F7C2F8B2F9D2DBC
:1023900001E00E94802B2083318342835383648336
:1023A00075838683978381E001C080E0DF91CF91C0
:1023B0001F910F91FF90EF90DF900895833081F08F
:1023C00028F4813099F08230A1F008958730A9F087
:1023D0008830B9F08430D1F4809180008F7D03C0C3
:1023E000809180008F7780938000089584B58F77E7
:1023F00002C084B58F7D84BD08958091B0008F7731
:1024000003C08091B0008F7D8093B0000895EF925B
:10241000FF920F931F93CF93DF93062F7A01909132
:10242000400421E02093E602909308031092E70213
:1024300010920903682F89EA93E00E944602E7019F
:1024400010E0CE018E199F098017910734F469912D
:1024500089EA93E00E944602F4CF81E0DF91CF91B8
:102460001F910F91FF90EF900C94B6192F923F920D
:102470004F925F926F927F928F929F92AF92BF9294
:10248000CF92DF92EF92FF920F931F93CF93DF9340
:10249000CDB7DEB72D970FB6F894DEBF0FBECDBF18
:1024A0003C01C982DA82EB82FC820D831E832F837A
:1024B000388749875A876B877C87BAA09C2C2D2C3C
:1024C0004E2C302E1D87522EC984DA84EB84FC8476
:1024D00084E190E00E94E72B8C01C30199270697C5
:1024E0003CF5F801D082C182862D880F880F880FB5
:1024F000845D0E942D1A942D93708C7F892BF80196
:10250000828323829482D701C6012CE0B695A795D9
:10251000979587952A95D1F7807F952D9F70C92E25
:10252000C80EC5828D858683932C378268E001C0F2
:1025300060E0E8E06E16710408F06CC0F301E45B43
:10254000FF4F0C940C2AA8018AE20E9407126A2D00
:1025500080E090E00E94CC1A4B2D682D80E090E046
:1025600057C0A80182E30E9407126A2D81E090E023
:102570000E94CC1A4B2D682D81E090E049C0A80143
:102580008AE30E9407126A2D82E090E00E94CC1A32
:102590004B2D682D82E090E03BC0A80182E40E94B0
:1025A00007126A2D83E090E00E94CC1A4B2D682D13
:1025B00083E090E02DC0A8018AE40E9407126A2DF2
:1025C00084E090E00E94CC1A4B2D682D84E090E0CE
:1025D0001FC0A80182E50E9407126A2D85E090E0E5
:1025E0000E94CC1A4B2D682D85E090E011C0692D1A
:1025F0008AE50E94121A4B2D682D86E090E008C0F3
:10260000692D8BE50E94121A4B2D682D87E090E012
:102610000E94951AC8012D960FB6F894DEBF0FBE22
:10262000CDBFDF91CF911F910F91FF90EF90DF9081
:10263000CF90BF90AF909F908F907F906F905F9062
:102640004F903F902F900C947F2C2F923F924F925F
:102650005F926F927F928F929F92AF92BF92CF9232
:10266000DF92EF92FF920F931F93CF93DF93CDB73B
:10267000DEB72E970FB6F894DEBF0FBECDBF19019F
:102680003A014B018D879E872801012BC9F4E09107
:102690002B04F0912C04EE0FFF1FEE0FFF1FE95CDF
:1026A000FB4FA080B180C280D380CE0101967C0117
:1026B00089019301AB016D857E8580E090E018C0B3
:1026C000E0912D04F0912E04EE0FFF1FEE0FFF1F7F
:1026D000E95CFB4FA080B180C280D380FE013196BF
:1026E0007F0181019A01AB016D857E8581E090E0DB
:1026F0000E94B70984E190E00E94E72B8C01898554
:102700009A85AB85BC85F8019083818339814A81A4
:102710002B8123702283438334832CE0B695A795C5
:10272000979587952A95D1F7807F2D813E819F814E
:102730009F70890F85833683278341145104C1F428
:10274000A80168E08AE10E94071220921B043092DF
:102750001C0460921D0470921E0480921F049092CB
:102760002004FD85F09321048E85809322041AC0F5
:102770004A944528B9F4A80168E082E20E94071251
:10278000209223043092240460922504709226043F
:102790008092270490922804ED85E0932904FE8519
:1027A000F0932A04C8012E960FB6F894DEBF0FBE30
:1027B000CDBFDF91CF911F910F91FF90EF90DF90F0
:1027C000CF90BF90AF909F908F907F906F905F90D1
:1027D0004F903F902F900C947F2C1F93CF93DF93BB
:1027E000EC01162F83E00E942D1A9E01332761E031
:1027F00070E001C0660F2A95EAF7113019F4609570
:10280000682301C0682B83E0DF91CF911F910C9466
:10281000121A2F923F924F925F926F927F928F92F5
:102820009F92AF92BF92CF92DF92EF92FF920F935F
:102830001F93CF93DF93CDB7DEB7E6970FB6F8942B
:10284000DEBF0FBECDBF29A33AA34BA35CA36DA3EC
:102850007EA38FA398A71801980133273AA729A729
:10286000263031050CF0E3C129A13AA1AFEF0E9457
:10287000C02B2E373A41464051056105710581054F
:10288000910509F058F480E889A38AE18AA386E0DB
:102890008BA31CA21DA21EA21FA218A629A13AA1A9
:1028A0004BA15CA16DA17EA18FA198A52115314CF2
:1028B0004A415D43654071058105910569F060F00D
:1028C00019A281EC8AA38AE18BA38DE38CA385E016
:1028D0008DA31EA21FA218A659A06AA07BA08CA03F
:1028E0009DA0AEA00FA118A5252D362D472D582D42
:1028F000692D7A2DC8012115344E4B405445624054
:1029000071058105910509F008F42DC1ABED4A2E42
:10291000A3E05A2E22EC33E03CA72BA76901F20179
:10292000E12CF12CC101880F991FDC01A553BC4F8C
:102930004D0120813181428153816481758186817D
:10294000978138962115344E4B40544562407105AD
:102950008105910599F090F029A53AA52E153F051E
:1029600069F0D60119962D913C911A97D4018D9159
:102970009C912817390711F481E0D7C2BFEFEB1AF9
:10298000FB0A12E0C10ED11C26E0E216F10489F622
:1029900009A51AA50F5B1B4FD8018C91811107C0A7
:1029A00061E0C1010E94ED1381E0F801808329A15B
:1029B0003AA14BA15CA16DA17EA18FA198A5A9A56B
:1029C000BAA5E3E0AA0FBB1FEA95E1F7AE53BC4FEF
:1029D000FD01799659962C93318342835383648306
:1029E000758386839783DE011D964D01A12CB12C42
:1029F000C12CD12CE12CF12C00E010E00E94970EAC
:102A000029A73DA74EA75FA768AB79AB8AAB9BAB65
:102A1000C101880F991FFC01EE53FC4F4F01018546
:102A200012858AA99BA90E942513612C712C9401FF
:102A3000275F3F4F3EAB2DABD2018C9011969C90FF
:102A400011971296AC90129713960C9113971496B7
:102A50001C9114971596BC91F201F680E780F8E07E
:102A60004F0E511C94014A2D502F612F7B2F8F2D1B
:102A70009E2DA0E00E94CC2B09F455C0EBA5FCA52F
:102A800021853285EDA9FEA980819181281739071A
:102A900009F049C0898E9A8EAB8E0C8F1D8FBE8F28
:102AA000FF8EE8A2CE0149960E949E108CAB298D24
:102AB0003A8D4B8D5C8D6D8D7E8DCE0101964C01D6
:102AC000A9A4BDA4CEA4DFA4E8A8F9A80AA91BA9BB
:102AD0008F8D98A10E94970EAA24A394298D3A8DD8
:102AE0004B8D5C8D6D8D7E8D8F8D98A12F3F354DDB
:102AF00041415E47634071058105910509F008F485
:102B0000A12CAF928CA8C980DA80EB80FC800D816B
:102B10001E812F81388549855A856B857C85C30147
:102B20000E9436120F90BFEF6B1A7B0AEBA5FCA533
:102B30003296FCA7EBA7F6E06F16710409F07CCF84
:102B4000F101EE0FFF1FEE53FC4F81859285009738
:102B500011F460E204C0019709F0E6C160E881EB7E
:102B60000E94121AE1C1A9A5BAA593E0AA0FBB1F42
:102B70009A95E1F7AE53BC4FFD01799659965C9258
:102B80006182728283829482A5820683178309A55B
:102B90001AA50F5B1B4FD8018C91811107C061E012
:102BA000C1010E94ED1381E0F8018083CE0181967E
:102BB0000E949E10782EF101EE0FFF1FEE53FC4F86
:102BC0000184F285E02D29A13AA14BA15CA16DA160
:102BD0007EA18FA198A5EF2BA1F4A0901B04B0902B
:102BE0001C04C0901D04D0901E04E0901F04F090BF
:102BF00020040091210410912204DE011D964D0154
:102C000013C0A0902304B0902404C0902504D09059
:102C10002604E0902704F0902804009129041091E4
:102C20002A04FE013D964F010E94970E6AC129A118
:102C30003AA14BA15CA16DA17EA18FA198A5AFEF98
:102C40000E94C02B263938424C415105610571055F
:102C50008105910509F058F480E889A38AE18AA3E7
:102C600086E08BA31CA21DA21EA21FA218A629A14A
:102C70003AA14BA15CA16DA17EA18FA198A52F3F88
:102C8000354D41415E47634071058105910571F005
:102C900068F08FEF89A385ED8AA381E18BA38EE78E
:102CA0008CA383E08DA31EA21FA218A629A12BA787
:102CB0003AA13DA74BA05CA06DA07EA08FA098A4D8
:102CC00086E02816310409F048C0209113043091A1
:102CD00014044091150450911604609117047091EA
:102CE00018048091190490911A04A0E00E94CC2B42
:102CF00009F048C0A9A5BAA503E0AA0FBB1F0A9511
:102D0000E1F7AE53BC4FFD0179961BA559961C9374
:102D10002DA52183428253826482758286829782A6
:102D2000CE0181960E94530D782E29A13AA14BA184
:102D30005CA16DA17EA1CE010D964C01A12CB12C00
:102D4000C12CD12CE12CF12C00E010E08FA198A532
:102D50000E948F0B01E010E0D2C020910B04309153
:102D60000C0440910D0450910E0460910F04709179
:102D700010048091110490911204A0E00E94CC2BC9
:102D800009F47AC0909123049EA7A0912404AFA7D0
:102D9000B0912504B8ABE0912604E9ABF09127048B
:102DA000FAAB109128041BAB209129042CAB309175
:102DB0002A043DABABA4BDA4620173018401292F99
:102DC0003A2F4B2F5E2F6F2F7BA98CA99DA90E94B4
:102DD000DA2AA0E00E94CC2B09F0CECD2EA53FA58B
:102DE00048A959A96AA97BA98CA99DA90E94DC2A96
:102DF000217030E040E050E060E070E080E090E082
:102E0000A0E00E94CC2B09F0B7CDA9A5BAA513E08C
:102E1000AA0FBB1F1A95E1F7AE53BC4FFD0179967F
:102E20005996AC92B18242825382648275828682C4
:102E30009782CE0181960E94530D782EA090230494
:102E4000B0902404C0902504D0902604E09027047C
:102E5000F09028040091290410912A0429A13AA194
:102E60004BA15CA16DA17EA1DE011D964D018FA13C
:102E700098A50E948F0B45C0E9A5FAA583E0EE0F47
:102E8000FF1F8A95E1F7EE53FC4FDF0159961BA512
:102E9000118F2DA511962C93119712964C92129783
:102EA00013965C92139714966C92149715967C92D5
:102EB000159716968C92169717969C92CE0181962E
:102EC0000E94530D782E29A13AA14BA15CA16DA1BE
:102ED0007EA1CE010D964C01A12CB12CC12CD12C80
:102EE000E12CF12C00E010E08FA198A50E948F0B3F
:102EF000F101EE0FFF1FEE53FC4F018512850E947A
:102F000025131F92872CA12CCD84DE84EF84F888B2
:102F100009891A892B893C894D895E896F89788D49
:102F2000C1010E9436120F9080E0E6960FB6F89429
:102F3000DEBF0FBECDBFDF91CF911F910F91FF90EC
:102F4000EF90DF90CF90BF90AF909F908F907F9049
:102F50006F905F904F903F902F9008951F93CF9365
:102F6000DF93EB0110E1180F812F0E942D1A682FBB
:102F70006C7FC230D10539F0C330D10531F02197D3
:102F800029F4616003C0626001C06360812FDF913A
:102F9000CF911F910C94121AFF920F931F93CF930E
:102FA000DF93EC018B01F82E80E1F80E8F2D0E944B
:102FB0002D1A0115110511F48F7D04C00130110582
:102FC00009F48062682F8F2D0E94121ADD27CC0F22
:102FD000DD1FCE53DC4F1A870987DF91CF911F91F8
:102FE0000F91FF900895CF93DF93282F30E0F901E0
:102FF000E151FF4F8491F901E552FF4FD491F9015E
:10300000E953FF4FC491CC2391F081110E94DE114E
:10301000EC2FF0E0EE0FFF1FE354FF4FA591B491AA
:10302000EC91ED2381E090E021F480E002C080E0AB
:1030300090E0DF91CF9108951F93CF93DF93282FD6
:1030400030E0F901E151FF4F8491F901E552FF4F62
:10305000D491F901E953FF4FC491CC23C1F0162F4D
:1030600081110E94DE11EC2FF0E0EE0FFF1FED54F6
:10307000FF4FA591B4919FB7F894111104C08C91A2
:10308000D095D82302C0EC91DE2BDC939FBFDF915B
:10309000CF911F910895CF93DF9390E0FC01E5520B
:1030A000FF4F2491FC01E953FF4F8491882361F184
:1030B00090E0880F991FFC01E755FF4FC591D4910F
:1030C000FC01ED54FF4FA591B491611109C09FB768
:1030D000F8948881209582238883EC912E230BC05D
:1030E000623061F49FB7F8948881322F3095832342
:1030F0008883EC912E2B2C939FBF06C08FB7F8943A
:10310000E8812E2B28838FBFDF91CF91089540E077
:10311000682F85EB93E00C94DE0881E00E9487180D
:103120008BE39FE10197F1F70895CF93DF93CDB73C
:10313000DEB728970FB6F894DEBF0FBECDBF98E07C
:10314000EBE0F1E0DE01119601900D929A95E1F726
:103150009091BD03961710F46FEF690FFE01319641
:10316000E60FF11DE60FF11D9081890F806828960A
:103170000FB6F894DEBF0FBECDBFDF91CF910C9498
:103180008718823028F09091B90398609093B90322
:103190008093BD031092BE038BE39DE00197F1F78E
:1031A0008091B90384FD0CC08BE496E4FC01319757
:1031B000F1F70197F1F783E592E00197F1F715C078
:1031C00080620E9487188BE496E40197F1F7809162
:1031D000B90380620E94871883E592E00197F1F7B6
:1031E0008091B90380620E9487188091B903806240
:1031F0000E94871884E08093BA038CE00E948718AD
:103200000E948D1882E08093BB0386E00C9487189F
:10321000CF93DF9388E190E00E946527CAE0D3E076
:10322000888389E190E00E9465278983CE01DF9140
:10323000CF9108950F931F93CF93DF9300D0CDB715
:10324000DEB70AE013E0F801608188E190E09A833C
:103250008983CE0101960E94B804F801618189E159
:1032600090E09A838983CE0101960E94B804C80138
:103270000F900F90DF91CF911F910F9108950097BC
:1032800069F0FC0101900020E9F73197AF01481B7C
:10329000590BBC0185EB93E00C94AD0080E090E00D
:1032A00008950C943F198F929F92AF92BF920F9303
:1032B0001F93CF93DF93CDB7DEB7A1970FB6F894E6
:1032C000DEBF0FBECDBF19A2423008F44AE08E0126
:1032D0000F5D1F4F842E912CA12CB12CA5019401C0
:1032E0000E94CB29E62FB901CA0101501109EA3029
:1032F00014F4E05D01C0E95CD801EC93232B242B8E
:10330000252B61F7C8010E943F19A1960FB6F894CA
:10331000DEBF0FBECDBFDF91CF911F910F91BF9048
:10332000AF909F908F900895CF92DF92EF92FF928F
:103330006B017C0141E06DE285EB93E00E94DE08C9
:1033400066277727CB016C197D098E099F094AE012
:103350000E9453190196FF90EF90DF90CF9008954F
:10336000BC0180E090E04AE00C945319282F309182
:103370000903313208F04AC08091E5028111FCCF87
:103380009091080342E04093E5022093E4022FEF7E
:103390002093E3021092E2023093E102E8EEF2E0C1
:1033A000A1ECB2E020E0321721F041914D932F5F64
:1033B000FACF1092C0022091C002990F922B9093E5
:1033C000C0029091BF02913061F41092BF029091BF
:1033D000C0029093BB009091BC0093FDF8CF95EC98
:1033E00001C095EE9093BC009091E5029230E1F31C
:1033F0009091E3029F3F79F08091E302803241F0A7
:103400008091E302803331F084E005C081E003C0A5
:1034100082E001C083E01092E7021092090310924B
:10342000E6020895CF93C62F9091400421E02093A7
:10343000E602909308031092E70210920903682FA6
:1034400089EA93E00E9446026C2F89EA93E00E9489
:10345000460281E0CF910C94B619CF93909140042D
:1034600021E02093E602909308031092E702109265
:103470000903682F89EA93E00E94460281E00E94D6
:10348000B619809140049091E5029111FCCF91E032
:103490009093E5021092E4022FEF2093E302109242
:1034A000E2021092E1029093C0029091C002880F54
:1034B000892B8093C0028091BF02813061F4109209
:1034C000BF028091C0028093BB008091BC0083FD4D
:1034D000F8CF85EC01C085EE8093BC008091E502B9
:1034E0008130E1F38091E202811103C0C091E202D8
:1034F00001C0C1E0E1ECF2E0AFE9B2E080E08C179E
:1035000021F091919D938F5FFACF10929E02C0930C
:103510009D0280E090919E02C91729F089EA93E00C
:103520000E94FD01F7CFCF910895FF920F931F9353
:10353000CF93DF938C01C62FF42E8830910528F4A9
:10354000FC01ED5EFE4FD08101C0D0E08D2F0E94C6
:103550002D1A0630110544F48378F1108C6090E147
:10356000C99FB00111240EC00630110519F4887FDF
:103570008C2B09C00730110531F490E1C99FB001CF
:1035800011248F78862B682F8D2FDF91CF911F917B
:103590000F91FF900C94121ACF93DF93D62FC0E1B6
:1035A000C80F8C2F0E942D1A682FD13011F460643F
:1035B00001C06F7B8C2FDF91CF910C94121A3FB713
:1035C000F89480914E0490914F04A0915004B091D2
:1035D000510426B5A89B05C02F3F19F00196A11DE7
:1035E000B11D3FBFBA2FA92F982F8827820F911D99
:1035F000A11DB11DBC01CD0142E0660F771F881FE0
:10360000991F4A95D1F708958E3008F08E50877033
:10361000806480937C0080917A00806480937A003B
:1036200080917A0086FDFCCF80917800209179000E
:1036300090E0922B08958F929F92AF92BF92CF927B
:10364000DF92EF92FF926B017C010E94DF1A4B0127
:103650005C01C114D104E104F104F1F00E94DF1A0D
:10366000DC01CB0188199909AA09BB09883E93405E
:10367000A105B10570F321E0C21AD108E108F108F3
:1036800088EE880E83E0981EA11CB11CC114D104E1
:10369000E104F10419F7DDCFFF90EF90DF90CF90B8
:1036A000BF90AF909F908F9008951F920F920FB68A
:1036B0000F9211242F933F938F939F93AF93BF93B8
:1036C0008091490490914A04A0914B04B0914C041C
:1036D00030914D0423E0230F2D3720F40196A11DD6
:1036E000B11D05C026E8230F0296A11DB11D209330
:1036F0004D048093490490934A04A0934B04B093E3
:103700004C0480914E0490914F04A0915004B091CC
:1037100051040196A11DB11D80934E0490934F0456
:10372000A0935004B0935104BF91AF919F918F919A
:103730003F912F910F900FBE0F901F901895CF9330
:10374000DF93CDB7DEB72C970FB6F894DEBF0FBE70
:10375000CDBF789484B5826084BD84B5816084BD1A
:1037600085B5826085BD85B5816085BD80916E001F
:10377000816080936E001092810080918100826050
:10378000809381008091810081608093810080918D
:1037900080008160809380008091B100846080937C
:1037A000B1008091B00081608093B00080917A0078
:1037B000846080937A0080917A00826080937A009E
:1037C00080917A00816080937A0080917A0080688D
:1037D00080937A001092C100E0911C03F0911D03C8
:1037E00082E08083E0911803F09119031082E09148
:1037F0001A03F0911B038FEC808310922403E09155
:103800002003F091210386E08083E0911E03F09174
:103810001F03808180618083E0911E03F0911F036C
:10382000808188608083E0911E03F0911F03808176
:1038300080688083E0911E03F0911F0380818F7D5B
:10384000808360E082E00E944B1860E083E00E9489
:103850004B1860E087E00E944B1860E089E00E940E
:103860004B1860E08AE00E944B1860E088E00E94FC
:103870004B1861E08BE00E944B1861E08CE00E94E5
:103880004B1861E082E00E941C1861E083E00E9416
:103890001C1861E087E00E941C1861E088E00E942B
:1038A0001C1861E089E00E941C1861E08AE00E9417
:1038B0001C1860E08BE00E941C186FE272E080E050
:1038C00090E00E94920480912F0290913002A0918A
:1038D0003102B091320281309A45A246B24090F056
:1038E00080E291EAA7E0B0E080932F02909330024B
:1038F000A0933102B09332026FE272E080E090E078
:103900000E94E90461E071E084E090E00E94880494
:1039100080910101893248F08EE18093010161E0DC
:1039200071E084E090E00E94D1046FE172E080E1F8
:1039300090E00E94920480911F0290912002A09139
:103940002102B0912202AC01BD01405C544B634B9B
:103950007F4F413856496849710528F48F3F9F4F82
:10396000AF4FBF4F71F410921F02109220021092BD
:103970002102109222026FE172E080E190E00E9449
:10398000E9046BE272E084E190E00E94920480918D
:103990002B0290912C02A0912D02B0912E02813029
:1039A0009842AB46BE4E90F080E091E9A7E6B1E1C7
:1039B00080932B0290932C02A0932D02B0932E02A1
:1039C0006BE272E084E190E00E94E9040E94081931
:1039D00080910A0390910B0381369A4E40F088EE55
:1039E00093E090930B0380930A030E941A196EE1EF
:1039F00072E08AE190E00E94880480911E02893082
:103A000048F082E080931E026EE172E08AE190E06D
:103A10000E94D1046DE172E08BE190E00E94880485
:103A200080911D02893048F082E080931D026DE193
:103A300072E08BE190E00E94D1046CE172E08CE1D5
:103A400090E00E94880480911C02893048F082E056
:103A500080931C026CE172E08CE190E00E94D10442
:103A600060E071E082E290E00E94880480910001B1
:103A7000833048F081E08093000160E071E082E2F1
:103A800090E00E94D10488EE93E0A0E0B0E0809343
:103A9000350290933602A0933702B093380280909B
:103AA0001F0290902002A0902102B0902202A091CB
:103AB00001010A2E000CBB0B20E432E44FE050E081
:103AC0000E941D2A6B017C0110929E0210929D02A1
:103AD0001092E702109209031092E50251E0509310
:103AE000E4021092BF0261E082E10E941C1861E0D2
:103AF00083E10E941C188091B9008E7F8093B900E9
:103B00008091B9008D7F8093B90088E48093B800DC
:103B100085E48093BC008BEE91E090931B02809330
:103B20001A028CEE91E09093190280931802809112
:103B3000400461E06093E602809308031092E7027C
:103B40001092090381E00E94B6198823A9F08091A0
:103B50001E02843009F483C130F4823009F088C138
:103B600060E070E081C1863009F47CC1883009F0E2
:103B70007FC163E070E078C180E00E942D1A90E080
:103B8000880F892F881F990B0197B1F362E187EBAA
:103B90000E94121AC114D104E104F104A1F171E8E8
:103BA000C71673ECD70679ECE70671E0F70610F15B
:103BB000D701C6018158934CA94CB1408038934C31
:103BC000A94CB14028F4F694E794D794C79412C056
:103BD000D701C60181509748A349B34081159A4542
:103BE000A246B240E0F4F2E0F694E794D794C7948A
:103BF000FA95D1F7C0922F04D0923004E0923104AC
:103C0000F09232040CC080E498E7ADE7B1E0809315
:103C10002F0490933004A0933104B0933204809227
:103C2000370490923804A0923904B0923A0420915B
:103C30001B0430911C0440911D0450911E0460919E
:103C40001F047091200400E010E080912104909105
:103C500022040E94251320912304309124044091D2
:103C6000250450912604609127047091280401E0F6
:103C700010E08091290490912A040E94251360E8A5
:103C800080E10E94121A60E881E10E94121A60E845
:103C900082E10E94121A60E883E10E94121A60E831
:103CA00084E10E94121A60E885E10E94121A60E81D
:103CB00086E10E94121A60E887E10E94121A6CE005
:103CC00080E10E94121A6CE081E10E94121A6CE0FD
:103CD00082E10E94121A6CE083E10E94121A6CE0E9
:103CE00084E10E94121A6CE085E10E94121A6CE0D5
:103CF00086E10E94121A6CE087E10E94121A00E02D
:103D000010E020E030E24FE550EA62E170E080E050
:103D100090E00E94251301E010E020E030E24FE542
:103D200050EA62E170E080E090E00E94251310927A
:103D3000CC031092CB031092CE031092CD031092BD
:103D4000D0031092CF031092D2031092D10310929D
:103D5000D4031092D3031092D6031092D50381E0BE
:103D600090E09093D8038093D7039093DA038093E5
:103D7000D90360E070E080E090E00E94CC1760E042
:103D800070E081E090E00E94CC1760E070E082E09B
:103D900090E00E94CC1760E070E083E090E00E9429
:103DA000CC1760E070E084E090E00E94CC1760E007
:103DB00070E085E090E00E94CC1761E070E086E062
:103DC00090E00E94CC1761E070E087E090E00E94F4
:103DD000CC1760E082EA0E94121A60E083EA0E9437
:103DE000121A60E084EA0E94121A60E281EB0E94DB
:103DF000121A60E881EB0E94121A0BED13E01A838D
:103E0000098301E414E0E12CF12CA981BA811C9210
:103E100011961C92119712961C92129713961C924F
:103E2000139714961C92149715961C921597169634
:103E30001C92169717961C9217971896BA83A98307
:103E400060E0C7010E94ED13F80111928F01FFEFAE
:103E5000EF1AFF0A28E0E216F104B9F678CE61E025
:103E600070E002C062E070E080E090E00E94AE1777
:103E700080911D02843069F028F4823099F460E06A
:103E800070E00CC0863041F0883061F463E070E08F
:103E900005C061E070E002C062E070E081E090E0A7
:103EA0000E94AE1780911C02843069F028F48230A1
:103EB00099F460E070E00CC0863041F0883061F425
:103EC00063E070E005C061E070E002C062E070E0B5
:103ED00082E090E00E94AE1720912F0230913002D4
:103EE0004091310250913202A4E6B0E00E94122AC1
:103EF00000912B0210912C0220912D0230912E0264
:103F0000DC01CB01800F911FA21FB31F7C018D012B
:103F10000F83188700E010E097014F81588560E01B
:103F200070E080E090E00E94091420912F0230910F
:103F300030024091310250913202A4E6B0E00E947A
:103F4000122A7B018C0120E030E0A9016D83FE8202
:103F50000F83188729873A874B875C8702E010E038
:103F600097014F81588560E070E080E090E00E940A
:103F7000091482E00E94C1180E94380980912F0222
:103F800090913002A0913102B091320260E0883D00
:103F90009C4AA740B10531F48DE00E9495188BE44E
:103FA00091E005C08DE00E9495188FE491E00E9499
:103FB000511961E08AE00E94951883E591E00E9422
:103FC00051192FB7F8948091490490914A04A09117
:103FD0004B04B0914C042FBF80935602909357022C
:103FE000A0935802B09359028093520290935302C7
:103FF000A0935402B093550244244A94542C3201A5
:104000008FB7F8944091490450914A0460914B0451
:1040100070914C048FBF40935602509357026093A7
:104020005802709359028091520290915302A091CC
:104030005402B09155020396A11DB11D48175907AE
:104040006A077B0708F468C489B18C701092390242
:1040500090913B028917C1F0843019F0883059F0F3
:104060000EC0911102C091E003C09C3041F49FEF5B
:104070009093390204C09C30B1F39923C1F380932B
:104080003B0281E080933A0280914802811141C352
:1040900089E00E94F317892B09F0BAC011E0109350
:1040A000480280913302812780933302809150022D
:1040B000812780935002882309F45AC020912F024F
:1040C000309130024091310250913202A4E6B0E0CA
:1040D0000E94122A00912B0210912C0220912D0295
:1040E00030912E02DC01CB01800F911FA21FB31F64
:1040F0007C018D010F83188702E010E097014F814A
:10410000588560E070E080E090E00E940914209102
:104110002F02309130024091310250913202A4E6D8
:10412000B0E00E94122A7B018C0120E030E0A9015E
:104130006D83FE820F83188729873A874B875C87B8
:1041400000E010E097014F81588560E070E080E06A
:1041500090E00E94091461E08BE00E941C1861E06D
:1041600080E00E9495188CE591E00E94511950C0A2
:1041700060E08BE00E941C1820912F0230913002E9
:104180004091310250913202A4E6B0E00E94122A1E
:1041900000912B0210912C0220912D0230912E02C1
:1041A000DC01CB01800F911FA21FB31F4C015D01E9
:1041B00000E010E09C01A50160E070E080E090E08C
:1041C0000E94091420912F02309130024091310257
:1041D00050913202A4E6B0E00E94122A4B015C0129
:1041E00002E010E09B01A50160E070E080E090E05B
:1041F0000E94091461E080E00E9495188FE591E02B
:104200000E945119FF24F394F0924A02F09249025D
:1042100087E00E94F317892B91F481E08093480294
:1042200090914A02982790934A02909133029827DE
:10423000909333029091340291118093330288E07D
:104240000E94F317892B09F0B6C081E080934802E1
:10425000909147028927809347028823A1F000E2CA
:1042600011EA27E030E000932F02109330022093F0
:1042700031023093320260E08DE00E9495188FE4A5
:1042800091E00E94511980914702811114C028EDDC
:104290003CEA47E050E020932F02309330024093F5
:1042A00031025093320260E08DE00E9495188BE459
:1042B00091E00E9451198091500220912F0230917B
:1042C00030024091310250913202C0902B02D090C6
:1042D0002C02E0902D02F0902E02A4E6B0E088239C
:1042E00071F10E94122AC60ED71EE81EF91EB701F0
:1042F000A60102E010E09601AB0160E070E080E012
:1043000090E00E94091420912F02309130024091D8
:10431000310250913202A4E6B0E00E94122A7B01E1
:104320008C0120E030E0A9016D83FE820F831887A5
:1043300029873A874B875C8700E010E033C00E94F2
:10434000122AC60ED71EE81EF91E97018601CD82DD
:104350001E832F83388700E010E02D813E814F813E
:10436000588560E070E080E090E00E9409142091A0
:104370002F02309130024091310250913202A4E676
:10438000B0E00E94122A7B018C0120E030E0A901FC
:104390006D83FE820F83188729873A874B875C8756
:1043A00002E010E097014F81588560E070E080E006
:1043B00090E00E9409148AE00E94F317892B09F00B
:1043C000A8C181E08093480290912A0289278093B6
:1043D0002A0210924602882309F498C1809134027F
:1043E000811194C1C0900A03D0900B038091020107
:1043F0008C3021F08F3F09F08CC105C0E8EAF0E075
:10440000F490F98272C08CE080930201E8EAF0E057
:10441000049109830F3F09F47CC1013009F441C0C4
:1044200038F1023009F061C01092B0001092B10072
:104430008091B00082608093B0008091B100816073
:104440008093B100E3EDF0E0E491F0E0EE0FFF1FA8
:10445000ED54FF4F8591949190932502809324020F
:10446000E7EEF0E0E491E093230202E00983A9C4BF
:1044700014BC15BC84B5826084BD85B5816085BDE2
:10448000E3EDF0E0E491F0E0EE0FFF1FED54FF4F9D
:1044900085919491E7EEF0E0E491E0933D0219827A
:1044A00090C41092800010928100809181008860F9
:1044B0008093810080918100816080938100E3ED91
:1044C000F0E0E491F0E0EE0FFF1FED54FF4F859117
:1044D0009491E7EEF0E0E491E0933C0261E08CE03F
:1044E0000E944B1811E01983A8C0198117FD11C152
:1044F00061E08CE00E944B18812F8D7F09F09DC0F8
:10450000E12CF12C60E072E18AE790E0A7019601CE
:104510000E94ED2949015A01BA01A90141505109EE
:10452000610971094F3F51056105710509F008F4F2
:1045300047C060E472E48FE090E0A70196010E941A
:10454000ED29BA01A9014150510961097109098197
:104550000230E9F44F3F51056105710509F008F497
:10456000D0C360E970ED83E090E0A70196010E945E
:10457000ED29BA01A90141505109610971094F3F63
:1045800051056105710509F030F583E04FC04F3FDB
:10459000510561057105B1F0A8F068E478EE81E09D
:1045A00090E0A70196010E94ED29BA01A9014150AE
:1045B0005109610971091981112309F4A4C3F9C3CF
:1045C00081E001C082E0E980E11030C095B5987FBC
:1045D000892B85BD6AC068E478EE81E090E0A70190
:1045E00096010E94ED29BA01A901415051096109C2
:1045F00071094F3F51056105710509F008F47FC34A
:1046000064E274EF80E090E0A70196010E94ED293A
:10461000BA01A90141505109610971094F3F510582
:104620006105710511F008F09DC385E09091B1001E
:10463000987F892B8093B10031C0E12CF12C60E090
:1046400072E18AE790E0A70196010E94ED29BA0184
:10465000A90141505109610971094115510501E054
:104660006007710580F068E478EE81E090E0A701D2
:1046700096010E94ED29BA01A90141505109610931
:10468000710983E001C081E01981113039F4909102
:104690008100987F892B8093810016C009810130A9
:1046A00099F0023019F1011134C047BD4092420225
:1046B00050924302609244027092450280916E00D3
:1046C000826080936E0025C05093890040938800DB
:1046D00040923E0250923F0260924002709241022C
:1046E00080916F00826080936F0013C04093B3008D
:1046F000409226025092270260922802709229026C
:104700008091700082608093700003C08CE00E94F2
:104710007B0289E00E94F317019799F487E00E94D9
:10472000F317019771F48AE00E94F317019749F497
:1047300088E00E94F317019721F4809148028111CB
:10474000D5C28AE00E94F317892BF9F480914802C0
:104750008823D9F0809146028F3FB9F08F5F809314
:1047600046028E3F91F480913402882309F4C1C23D
:104770000E948D18109233020E94380981E08093C4
:104780004A02809349021092340280913A028823AF
:1047900009F4ADC0809133028111A9C02091350286
:1047A000309136024091370250913802A4E6B0E0D1
:1047B0000E94122A9B01AC01A09139020A2E000C22
:1047C000BB0B0E941D2A00912B0210912C022091FC
:1047D0002D0230912E02DC01CB01800F911FA21F10
:1047E000B31F803910ED910713E0A107B10548F020
:1047F00080932B0290932C02A0932D02B0932E0253
:104800000CC020E930ED43E050E020932B023093C0
:104810002C0240932D0250932E0280912B029091F6
:104820002C02A0912D02B0912E0281309842AB460D
:10483000BE4E60F040E058E26BE67EEE40932B0205
:1048400050932C0260932D0270932E0220912F0220
:10485000309130024091310250913202A4E6B0E032
:104860000E94122A00912B0210912C0220912D02FD
:1048700030912E02DC01CB01800F911FA21FB31FCC
:104880007C018D010F83188700E010E097014F81B4
:10489000588560E070E080E090E00E94091420916B
:1048A0002F02309130024091310250913202A4E641
:1048B000B0E00E94122A7B018C0120E030E0A901C7
:1048C0006D83FE820F83188729873A874B875C8721
:1048D00002E010E097014F81588560E070E080E0D1
:1048E00090E00E94091410923A020E9438098091C7
:1048F000560290915702A0915802B09159028093AC
:10490000520290935302A0935402B09355028091A7
:1049100051028F5F8093510280915102813108F4DE
:104920003EC180915002882309F439C181E080930F
:104930005102F0904F020F2D0F5F098300934F0239
:104940008EE00E94041BE0904D02F0904E02E80EB3
:10495000F91EF0924E02E0924D028FE00E94041B7D
:1049600020914B0230914C02280F391F30934C029A
:1049700020934B020B3008F412C15981452F50E0AF
:104980005A834983C701BA010E94B72970934E0226
:1049900060934D02C90169817A810E94B7297093A1
:1049A0004C0260934B0261E080E00E94951880E722
:1049B00091E00E9451198BE691E00E94511961E04B
:1049C00081E00E94951880914D0290914E020E94C4
:1049D000B01961E085E00E9495188BEB91E00E9490
:1049E00051198CE691E00E94511961E086E00E9425
:1049F000951880914B0290914C020E94B01961E091
:104A000089E00E94951882E791E00E945119E09098
:104A10004D02F0904E02C0904B02D0904C02B70174
:104A20006C0D7D1D80E090E00E948E284B015C01A2
:104A3000B7016C197D0980E090E00E948E289B01EF
:104A4000AC01C501B4010E94ED276B017C014B0153
:104A50005C019B01AC010E94B229882319F086E712
:104A600091E01DC0C701B6019F7769837A838B836C
:104A70009C832FEF3FEF4FE75FE70E94B229811140
:104A800011C02FEF3FEF4FE75FE769817A818B819C
:104A90009C810E94E82718162CF48AE791E00E9476
:104AA0003F1976C02FEF3FEF4FE75FE4C701B60134
:104AB0000E94402918161CF48EE791E0F0CF2FEFEA
:104AC0003FEF4FE75FECC701B6010E94E82787FD83
:104AD000F3CF20E030E0A901C701B6010E94E8272A
:104AE00087FF0CC041E06DE285EB93E00E94DE0899
:104AF00046015701B7FAB094B7F8B0942AE037ED01
:104B000043EA5BE3C501B4010E947C274B015C01D1
:104B10000E945F286B017C010E948E289B01AC01E2
:104B2000C501B4010E947B274B015C014AE0C7012B
:104B3000B6010E94531941E06EE285EB93E00E94BA
:104B4000DE0820E030E040E251E4C501B4010E94FB
:104B500045294B015C010E945F286B017C01CB0160
:104B60000E94B019B60180E090E00E948E289B015F
:104B7000AC01C501B4010E947B2720E030E040E297
:104B800051E40E9445290E945F28CB010E94B01980
:104B90008CE691E00E94511981E080934F02809150
:104BA0004A02882309F49AC080913A02811105C013
:104BB00080914902882309F491C061E08AE00E9453
:104BC00095189091030180913902890F873008F080
:104BD00086E08093030180910301811103C081E08D
:104BE00080930301809103018330D1F1A0F48130DF
:104BF00041F1823009F064C08AE090E0A0E0B0E0CA
:104C00008093350290933602A0933702B093380216
:104C100087E891E053C0853009F442C080F18630C6
:104C200009F04EC080EA96E8A1E0B0E0809335023A
:104C300090933602A0933702B09338028BE991E04B
:104C40003DC081E090E0A0E0B0E080933502909319
:104C50003602A0933702B093380282E891E02EC06A
:104C600084E690E0A0E0B0E08093350290933602B5
:104C7000A0933702B09338028CE891E01FC018EE81
:104C8000E12E13E0F12E00E010E0E0923502F09208
:104C90003602009337021093380281E991E00EC08A
:104CA00000E117E220E030E0009335021093360275
:104CB000209337023093380286E991E00E9451191F
:104CC00080EA91E00E94511980914902882321F0E5
:104CD00010924A021092490210923A0280913402D4
:104CE00081110E941C050E94AF018AC910924802DE
:104CF00028CD81E080933A020E941C0546CD84E0D5
:104D000095CC82E093CC4F3F51056105710541F18F
:104D100038F162E17AE780E090E0A70196010E9415
:104D2000ED29BA01A90141505109610971094F3FAB
:104D300051056105710591F088F0D501C4013AE093
:104D4000B595A795979587953A95D1F7AC01BD0193
:104D5000415051096109710985E038CC84E036CCB5
:104D600083E034CC62E17AE780E090E0A70196012D
:104D70000E94ED29BA01A901415051096109710947
:104D80004F3F51056105710591F088F0D501C401CF
:104D90002AE0B595A795979587952A95D1F7AC0107
:104DA000BD01415051096109710987E03FCC86E09E
:104DB0003DCC4F3F51056105710509F098F684E03F
:104DC00002CC61E08CE00E944B189ACBCF93DF932A
:104DD000ECE0F3E01382128288EE93E0A0E0B0E012
:104DE00084839583A683B7832FE131E031832083C9
:104DF00025EC30E03587248724EC30E037872687A0
:104E000020EC30E0318B208B21EC30E0338B228B97
:104E100022EC30E0358B248B26EC30E0378B268B70
:104E2000118E128E138E148EE9EAF3E01382128231
:104E300084839583A683B78381E391E09183808304
:104E400085E0E2ECF3E0DF01982F1D929A95E9F7F7
:104E5000158216821782108690E69093400440E4F3
:104E600058E76DE771E040932F045093300460934E
:104E700031047093320410922C0410922B0410927F
:104E80002E0410922D0410923F04C5EBD3E01B8238
:104E90001A8223E431E03983288394E09A878B8750
:104EA00086E08C8761E084E00E944B1861E08B858E
:104EB0000E944B1861E08C850E944B1880E18C8326
:104EC00081E0DF91CF910C94C118F999FECF92BD8A
:104ED00081BDF89A992780B50895262FF999FECFBC
:104EE0001FBA92BD81BD20BD0FB6F894FA9AF99A07
:104EF0000FBE019608955058BB27AA270E949327FA
:104F00000C9406290E94F82838F00E94FF2820F00F
:104F100039F49F3F19F426F40C94F5280EF4E0952B
:104F2000E7FB0C94EF28E92F0E94172958F3BA17D2
:104F3000620773078407950720F079F4A6F50C94AF
:104F400039290EF4E0950B2EBA2FA02D0B01B901D3
:104F500090010C01CA01A0011124FF27591B99F0EF
:104F6000593F50F4503E68F11A16F040A22F232FFB
:104F7000342F4427585FF3CF469537952795A7954B
:104F8000F0405395C9F77EF41F16BA0B620B730BF2
:104F9000840BBAF09150A1F0FF0FBB1F661F771F63
:104FA000881FC2F70EC0BA0F621F731F841F48F418
:104FB000879577956795B795F7959E3F08F0B0CFA1
:104FC0009395880F08F09927EE0F97958795089588
:104FD0000E94CB2808F481E008950E9401280C94D7
:104FE00006290E94FF2858F00E94F82840F029F472
:104FF0005F3F29F00C94EF2851110C943A290C943E
:10500000F5280E94172968F39923B1F3552391F3EA
:10501000951B550BBB27AA2762177307840738F027
:105020009F5F5F4F220F331F441FAA1FA9F335D084
:105030000E2E3AF0E0E832D091505040E695001C38
:10504000CAF72BD0FE2F29D0660F771F881FBB1FF2
:10505000261737074807AB07B0E809F0BB0B802DD0
:10506000BF01FF2793585F4F3AF09E3F510578F0FC
:105070000C94EF280C943A295F3FE4F3983ED4F364
:10508000869577956795B795F7959F5FC9F7880FD0
:10509000911D9695879597F90895E1E0660F771F22
:1050A000881FBB1F621773078407BA0720F0621BB3
:1050B000730B840BBA0BEE1F88F7E09508950E94DE
:1050C0001F2988F09F5798F0B92F9927B751B0F052
:1050D000E1F0660F771F881F991F1AF0BA95C9F77C
:1050E00014C0B13091F00E943929B1E008950C94B8
:1050F0003929672F782F8827B85F39F0B93FCCF36B
:10510000869577956795B395D9F73EF490958095F8
:10511000709561957F4F8F4F9F4F0895E89409C018
:1051200097FB3EF490958095709561957F4F8F4FDA
:105130009F4F9923A9F0F92F96E9BB279395F695F0
:10514000879577956795B795F111F8CFFAF4BB0F6E
:1051500011F460FF1BC06F5F7F4F8F4F9F4F16C0D2
:10516000882311F096E911C0772321F09EE8872F5C
:10517000762F05C0662371F096E8862F70E060E018
:105180002AF09A95660F771F881FDAF7880F969591
:10519000879597F90895990F0008550FAA0BE0E835
:1051A000FEEF16161706E807F907C0F012161306E9
:1051B000E407F50798F0621B730B840B950B39F429
:1051C0000A2661F0232B242B252B21F408950A268F
:1051D00009F4A140A6958FEF811D811D089597F9CF
:1051E0009F6780E870E060E008959FEF80EC08958D
:1051F00000240A94161617061806090608950024B6
:105200000A9412161306140605060895092E03942F
:10521000000C11F4882352F0BB0F40F4BF2B11F4A3
:1052200060FF04C06F5F7F4F8F4F9F4F089557FD02
:105230009058440F551F59F05F3F71F04795880F04
:1052400097FB991F61F09F3F79F08795089512169B
:1052500013061406551FF2CF4695F1DF08C0161647
:1052600017061806991FF1CF8695710561050894F8
:105270000895E894BB2766277727CB0197F908950F
:105280000E94CB2808F48FEF08950E9458290C94AF
:1052900006290E94F82838F00E94FF2820F0952364
:1052A00011F00C94EF280C94F52811240C943A2951
:1052B0000E94172970F3959FC1F3950F50E0551F79
:1052C000629FF001729FBB27F00DB11D639FAA275B
:1052D000F00DB11DAA1F649F6627B00DA11D661FAA
:1052E000829F2227B00DA11D621F739FB00DA11DCB
:1052F000621F839FA00D611D221F749F3327A00D85
:10530000611D231F849F600D211D822F762F6A2F20
:1053100011249F5750409AF0F1F088234AF0EE0F85
:10532000FF1FBB1F661F771F881F91505040A9F7B2
:105330009E3F510580F00C94EF280C943A295F3F72
:10534000E4F3983ED4F3869577956795B795F795EE
:10535000E7959F5FC1F7FE2B880F911D9695879566
:1053600097F908950E94CB28880B990B0895AA1BE2
:10537000BB1B51E107C0AA1FBB1FA617B70710F040
:10538000A61BB70B881F991F5A95A9F78095909572
:10539000BC01CD010895A1E21A2EAA1BBB1BFD0181
:1053A0000DC0AA1FBB1FEE1FFF1FA217B307E40704
:1053B000F50720F0A21BB30BE40BF50B661F771F5C
:1053C000881F991F1A9469F760957095809590953C
:1053D0009B01AC01BD01CF010895052E97FB1EF482
:1053E00000940E94042A57FD07D00E94CB2907FC95
:1053F00003D04EF40C94042A509540953095219595
:105400003F4F4F4F5F4F08959095809570956195F0
:105410007F4F8F4F9F4F0895EE0FFF1F0590F49120
:10542000E02D09940E94D82BA59F900DB49F900D5C
:10543000A49F800D911D11240895B7FF0C94122A8A
:105440000E94122A821B930B0895DF93CF931F9320
:105450000F939A9DF02D219FF00D8B9DF00D8A9D4D
:10546000E02DF10D039FF00D029FE00DF11D4E9D0B
:10547000E00DF11D5E9DF00D4F9DF00D7F936F933C
:10548000BF92AF925F934F93D5010E94D82B8B01AF
:10549000AC01D7010E94D82BEB01E80FF91FD60110
:1054A0000E94752A2F913F91D6010E94D82BC60FDA
:1054B000D71FE81FF91FAF91BF910E94752A2F9146
:1054C0003F910E94D82BC60FD71FE81FF91FD601A6
:1054D0000E94D82BE60FF71F9801BE01CF011124BF
:1054E0000F911F91CF91DF9108950E94D82B460F05
:1054F000571FC81FD91F08F431960895E894DF9309
:10550000CF93FC01DB010E94D82B7F936F93E901BD
:105510009A01AC01BF93AF933F932F93DF010E9499
:10552000D82B26F46C1B7D0B820B930B9E01EB0199
:10553000FC010E94752AAF91BF912F913F910E946B
:10554000752ABE01CF01F9012F913F91CF91DF91D3
:105550000895689401C0E894F92FF12B12F00C948F
:10556000DD2AA0E0B0E0E7EBFAE20C944F2B092E25
:10557000059422F40E94392B112392F4F0E80F26AF
:10558000FFEFE094F09400951095B094C094D094FF
:10559000A194BF0ACF0ADF0AEF0AFF0A0F0B1F0B05
:1055A0000E94E82A07FC0E94392BCDB7DEB7ECE059
:1055B0000C946B2B689401C0E8948F929F92CF93C8
:1055C000DF930E94E82ADF91CF919F908F900895FA
:1055D00088249924F401E401B0E49F93AA279A1542
:1055E0008B049C04ED05FE05CF05D007A10798F4B8
:1055F000AD2FDC2FCF2FFE2FE92D982C892E982F41
:10560000872F762F652F542F432F322F2227B85004
:1056100031F7BF9127C01B2EBF91BB27220F331F2D
:10562000441F551F661F771F881F991F881C991CD0
:10563000EE1FFF1FCC1FDD1FAA1FBB1F8A149B0478
:10564000EC05FD05CE05DF05A007B10748F08A1877
:105650009B08EC09FD09CE09DF09A00BB10B216005
:105660001A94E1F62EF49401AF01BE01CD01000CB5
:1056700008956095709580959095309540955095DA
:1056800021953F4F4F4F5F4F6F4F7F4F8F4F9F4F32
:1056900008952F923F924F925F926F927F928F92D6
:1056A0009F92AF92BF92CF92DF92EF92FF920F93B1
:1056B0001F93CF93DF93CDB7DEB7CA1BDB0B0FB6BB
:1056C000F894DEBF0FBECDBF09942A883988488878
:1056D0005F846E847D848C849B84AA84B984C8840E
:1056E000DF80EE80FD800C811B81AA81B981CE0F05
:1056F000D11D0FB6F894DEBF0FBECDBFED010895EA
:105700000F93083090F0982F872F762F652F542F06
:10571000432F322F22270850F4CF220F331F441F6C
:10572000551F661F771F881F991F0A95B2F70F91A3
:10573000089597FB10F8169400080F93083098F01E
:105740000850232F342F452F562F672F782F892F5E
:10575000902DF4CF059497958795779567955795F4
:105760004795379527950A95AAF70F9108952A0D21
:105770003B1D4C1D5D1D6E1D7F1D801F911F0895DB
:105780000024A7FD00942A0F301D401D501D601DF0
:10579000701D801D901D08950024A7FD00942A17F8
:1057A0003005400550056005700580059005089599
:1057B000A29FB001B39FC001A39F700D811D112452
:1057C000911DB29F700D811D1124911D08950F939D
:1057D0001F93CF93DF938230910510F482E090E025
:1057E000E0915404F091550420E030E0A0E0B0E0F6
:1057F000309719F14081518102811381481759076F
:10580000C8F08417950769F4109731F012960C933D
:10581000129713961C9327C00093540410935504B9
:1058200022C02115310519F04217530718F49A01C7
:10583000BD01EF01DF01F801DBCF21153105F9F0E2
:10584000281B390B2430310580F48A819B81611536
:10585000710521F0FB019383828304C0909355046A
:1058600080935404FE01329644C0FE01E20FF31F00
:105870008193919322503109398328833AC0209132
:10588000520430915304232B41F4209107013091AD
:105890000801309353042093520420910501309164
:1058A00006012115310541F42DB73EB7409109019C
:1058B00050910A01241B350BE0915204F0915304DE
:1058C000E217F307A0F42E1B3F0B2817390778F0D7
:1058D000AC014E5F5F4F2417350748F04E0F5F1F36
:1058E00050935304409352048193919302C0E0E09B
:1058F000F0E0CF01DF91CF911F910F910895CF93E9
:10590000DF93009709F481C0FC0132971382128261
:10591000A0915404B0915504109781F420813181F5
:10592000820F931F20915204309153042817390796
:1059300051F5F0935304E093520467C0ED0120E069
:1059400030E0CE17DF0740F44A815B819E014115AC
:105950005105F1F0EA01F5CFD383C2834081518133
:10596000840F951FC817D90759F488819981840F2E
:10597000951F0296918380838A819B819383828382
:105980002115310529F4F0935504E09354043DC0EA
:10599000E901FB83EA8349915991C40FD51FEC17A4
:1059A000FD0761F480819181840F951F0296E901C2
:1059B00099838883828193819B838A83E0E0F0E0EE
:1059C00012968D919C911397009719F0FD01DC01BF
:1059D000F7CF8D919C9111979D012E5F3F4F820FC4
:1059E000931F20915204309153042817390769F40A
:1059F000309729F4109255041092540402C0138277
:105A00001282B0935304A0935204DF91CF91089572
:0E5A100081E090E0F8940C940D2DF894FFCFF7
:105A1E00011EFF0408000056048000000040001420
:105A2E000054002C343C444C545C5C00000000409C
:105A3E0001AD00D7008D010801E600FA000000005C
:105A4E0000460219027602ED011102FD01EE01007F
:105A5E000000003209AD0076027502555342004C2B
:105A6E005342002020316B487A20200054580020E9
:105A7E002020202020202020202020202020200038
:105A8E005000535752006E616E00696E66006F765D
:105A9E0066002020203100202031300020313030AF
:105AAE00002020316B002031306B003130306B0024
:105ABE00487A0053657475700020202020436F6D66
:105ACE00706C6974652121212000494600585441AB
